{
  "transactions": [
    {
      "hash": "0xdcb4716dd5c7b99807eb1b25ae4f1329450e92f84b795b601983faa5582003ef",
      "transactionType": "CALL",
      "contractName": null,
      "contractAddress": "0xc9a27fac65459af9161588ab21f20f5fef52005c",
      "function": "approve(address,uint256)",
      "arguments": [
        "0x8f42BD64b98f35EC696b968e3ad073886464dEC1",
        "115792089237316195423570985008687907853269984665640564039457584007913129639935"
      ],
      "transaction": {
        "from": "0x00000050fdbabeb90fc6ed9891716300ff8f53cb",
        "to": "0xc9a27fac65459af9161588ab21f20f5fef52005c",
        "gas": "0xfc03",
        "value": "0x0",
        "input": "0x095ea7b30000000000000000000000008f42bd64b98f35ec696b968e3ad073886464dec1ffffffffffffffffffffffffffffffffffffffffffffffffffffffffffffffff",
        "nonce": "0x1",
        "chainId": "0xaa36a7"
      },
      "additionalContracts": [],
      "isFixedGasLimit": false
    },
    {
      "hash": "0x6a4121ea2062f655ec5e60cb12ea9eefebaddd1e66956a4d751653844c74602c",
      "transactionType": "CALL",
      "contractName": null,
      "contractAddress": "0x8f42bd64b98f35ec696b968e3ad073886464dec1",
      "function": "bridgeERC20To(address,address,address,uint256,uint32,bytes)",
      "arguments": [
        "0xC9a27FAc65459Af9161588AB21f20f5FEF52005c",
        "0xC9a27FAc65459Af9161588AB21f20f5FEF52005c",
        "0x42138576848E839827585A3539305774D36B9602",
        "1000000000000000000",
        "400000",
        "0x"
      ],
      "transaction": {
        "from": "0x00000050fdbabeb90fc6ed9891716300ff8f53cb",
        "to": "0x8f42bd64b98f35ec696b968e3ad073886464dec1",
        "gas": "0x1244a7",
        "value": "0x0",
        "input": "0x540abf73000000000000000000000000c9a27fac65459af9161588ab21f20f5fef52005c000000000000000000000000c9a27fac65459af9161588ab21f20f5fef52005c00000000000000000000000042138576848e839827585a3539305774d36b96020000000000000000000000000000000000000000000000000de0b6b3a76400000000000000000000000000000000000000000000000000000000000000061a8000000000000000000000000000000000000000000000000000000000000000c00000000000000000000000000000000000000000000000000000000000000000",
        "nonce": "0x2",
        "chainId": "0xaa36a7"
      },
      "additionalContracts": [],
      "isFixedGasLimit": false
    }
  ],
  "receipts": [
    {
      "status": "0x1",
      "cumulativeGasUsed": "0xa84441",
      "logs": [
        {
          "address": "0xc9a27fac65459af9161588ab21f20f5fef52005c",
          "topics": [
            "0x8c5be1e5ebec7d5bd14f71427d1e84f3dd0314c0f7b2291e5b200ac8c7c3b925",
            "0x00000000000000000000000000000050fdbabeb90fc6ed9891716300ff8f53cb",
            "0x0000000000000000000000008f42bd64b98f35ec696b968e3ad073886464dec1"
          ],
          "data": "0xffffffffffffffffffffffffffffffffffffffffffffffffffffffffffffffff",
          "blockHash": "0xd186ac45529b7840d19c3ebada3da2b399295d19c3cb1527fb04743cea5a695c",
          "blockNumber": "0x7f8daa",
          "blockTimestamp": "0x682ae89c",
          "transactionHash": "0xdcb4716dd5c7b99807eb1b25ae4f1329450e92f84b795b601983faa5582003ef",
          "transactionIndex": "0x83",
          "logIndex": "0xb3",
          "removed": false
        }
      ],
      "logsBloom": "0x00000000000000000000001000000000000000000000000000000000000000000000020000000000000000000000000000000000000000000000000004200000000000000000000000000000001000c00000000000000000000000000000000000000000000000200000000000000000000000000000000000000000000000000000000000000000000000000000000000000000000000000000000000000000020000000000000000000000000000000000000000000000000000000000000000000000000000000000000000000000000000000000000000000000000000000010000000000000000000000000000000000000000000800020000000000000",
      "type": "0x2",
      "transactionHash": "0xdcb4716dd5c7b99807eb1b25ae4f1329450e92f84b795b601983faa5582003ef",
      "transactionIndex": "0x83",
      "blockHash": "0xd186ac45529b7840d19c3ebada3da2b399295d19c3cb1527fb04743cea5a695c",
      "blockNumber": "0x7f8daa",
      "gasUsed": "0xb674",
      "effectiveGasPrice": "0x623c0d",
      "from": "0x00000050fdbabeb90fc6ed9891716300ff8f53cb",
      "to": "0xc9a27fac65459af9161588ab21f20f5fef52005c",
      "contractAddress": null
    },
    {
      "status": "0x1",
      "cumulativeGasUsed": "0xb57e11",
      "logs": [
        {
          "address": "0xc9a27fac65459af9161588ab21f20f5fef52005c",
          "topics": [
            "0xddf252ad1be2c89b69c2b068fc378daa952ba7f163c4a11628f55a4df523b3ef",
            "0x00000000000000000000000000000050fdbabeb90fc6ed9891716300ff8f53cb",
            "0x0000000000000000000000008f42bd64b98f35ec696b968e3ad073886464dec1"
          ],
          "data": "0x0000000000000000000000000000000000000000000000000de0b6b3a7640000",
          "blockHash": "0xd186ac45529b7840d19c3ebada3da2b399295d19c3cb1527fb04743cea5a695c",
          "blockNumber": "0x7f8daa",
          "blockTimestamp": "0x682ae89c",
          "transactionHash": "0x6a4121ea2062f655ec5e60cb12ea9eefebaddd1e66956a4d751653844c74602c",
          "transactionIndex": "0x84",
          "logIndex": "0xb4",
          "removed": false
        },
        {
          "address": "0x8f42bd64b98f35ec696b968e3ad073886464dec1",
          "topics": [
            "0x718594027abd4eaed59f95162563e0cc6d0e8d5b86b1c7be8b1b0ac3343d0396",
            "0x000000000000000000000000c9a27fac65459af9161588ab21f20f5fef52005c",
            "0x000000000000000000000000c9a27fac65459af9161588ab21f20f5fef52005c",
            "0x00000000000000000000000000000050fdbabeb90fc6ed9891716300ff8f53cb"
          ],
          "data": "0x00000000000000000000000042138576848e839827585a3539305774d36b96020000000000000000000000000000000000000000000000000de0b6b3a764000000000000000000000000000000000000000000000000000000000000000000600000000000000000000000000000000000000000000000000000000000000000",
          "blockHash": "0xd186ac45529b7840d19c3ebada3da2b399295d19c3cb1527fb04743cea5a695c",
          "blockNumber": "0x7f8daa",
          "blockTimestamp": "0x682ae89c",
          "transactionHash": "0x6a4121ea2062f655ec5e60cb12ea9eefebaddd1e66956a4d751653844c74602c",
          "transactionIndex": "0x84",
          "logIndex": "0xb5",
          "removed": false
        },
        {
          "address": "0x8f42bd64b98f35ec696b968e3ad073886464dec1",
          "topics": [
            "0x7ff126db8024424bbfd9826e8ab82ff59136289ea440b04b39a0df1b03b9cabf",
            "0x000000000000000000000000c9a27fac65459af9161588ab21f20f5fef52005c",
            "0x000000000000000000000000c9a27fac65459af9161588ab21f20f5fef52005c",
            "0x00000000000000000000000000000050fdbabeb90fc6ed9891716300ff8f53cb"
          ],
          "data": "0x00000000000000000000000042138576848e839827585a3539305774d36b96020000000000000000000000000000000000000000000000000de0b6b3a764000000000000000000000000000000000000000000000000000000000000000000600000000000000000000000000000000000000000000000000000000000000000",
          "blockHash": "0xd186ac45529b7840d19c3ebada3da2b399295d19c3cb1527fb04743cea5a695c",
          "blockNumber": "0x7f8daa",
          "blockTimestamp": "0x682ae89c",
          "transactionHash": "0x6a4121ea2062f655ec5e60cb12ea9eefebaddd1e66956a4d751653844c74602c",
          "transactionIndex": "0x84",
          "logIndex": "0xb6",
          "removed": false
        },
        {
          "address": "0x2dcc660014f553a7db28f6ae06c45b2a3d2341e5",
          "topics": [
            "0xb3813568d9991fc951961fcb4c784893574240a28925604d09fc577c55bb7c32",
            "0x000000000000000000000000f018e15bbfd880539a732c0ec14cc6bd762052ae",
            "0x0000000000000000000000004200000000000000000000000000000000000007",
            "0x0000000000000000000000000000000000000000000000000000000000000000"
          ],
          "data": "0x0000000000000000000000000000000000000000000000000000000000000020000000000000000000000000000000000000000000000000000000000000022d0000000000000000000000000000000000000000000000000000000000000000000000000000000000000000000000000000000000000000000000000000000000000000000a9ad500d764ad0b000100000000000000000000000000000000000000000000000000000000005c0000000000000000000000008f42bd64b98f35ec696b968e3ad073886464dec1000000000000000000000000420000000000000000000000000000000000001000000000000000000000000000000000000000000000000000000000000000000000000000000000000000000000000000000000000000000000000000061a8000000000000000000000000000000000000000000000000000000000000000c000000000000000000000000000000000000000000000000000000000000000e40166a07a000000000000000000000000c9a27fac65459af9161588ab21f20f5fef52005c000000000000000000000000c9a27fac65459af9161588ab21f20f5fef52005c00000000000000000000000000000050fdbabeb90fc6ed9891716300ff8f53cb00000000000000000000000042138576848e839827585a3539305774d36b96020000000000000000000000000000000000000000000000000de0b6b3a764000000000000000000000000000000000000000000000000000000000000000000c000000000000000000000000000000000000000000000000000000000000000000000000000000000000000000000000000000000000000000000000000000000000000000000000000000000000000",
          "blockHash": "0xd186ac45529b7840d19c3ebada3da2b399295d19c3cb1527fb04743cea5a695c",
          "blockNumber": "0x7f8daa",
          "blockTimestamp": "0x682ae89c",
          "transactionHash": "0x6a4121ea2062f655ec5e60cb12ea9eefebaddd1e66956a4d751653844c74602c",
          "transactionIndex": "0x84",
          "logIndex": "0xb7",
          "removed": false
        },
        {
          "address": "0xdf07e15bbfd880539a732c0ec14cc6bd7620419d",
          "topics": [
            "0xcb0f7ffd78f9aee47a248fae8db181db6eee833039123e026dcbff529522e52a",
            "0x0000000000000000000000004200000000000000000000000000000000000010"
          ],
          "data": "0x0000000000000000000000008f42bd64b98f35ec696b968e3ad073886464dec10000000000000000000000000000000000000000000000000000000000000080000100000000000000000000000000000000000000000000000000000000005c0000000000000000000000000000000000000000000000000000000000061a8000000000000000000000000000000000000000000000000000000000000000e40166a07a000000000000000000000000c9a27fac65459af9161588ab21f20f5fef52005c000000000000000000000000c9a27fac65459af9161588ab21f20f5fef52005c00000000000000000000000000000050fdbabeb90fc6ed9891716300ff8f53cb00000000000000000000000042138576848e839827585a3539305774d36b96020000000000000000000000000000000000000000000000000de0b6b3a764000000000000000000000000000000000000000000000000000000000000000000c0000000000000000000000000000000000000000000000000000000000000000000000000000000000000000000000000000000000000000000000000",
          "blockHash": "0xd186ac45529b7840d19c3ebada3da2b399295d19c3cb1527fb04743cea5a695c",
          "blockNumber": "0x7f8daa",
          "blockTimestamp": "0x682ae89c",
          "transactionHash": "0x6a4121ea2062f655ec5e60cb12ea9eefebaddd1e66956a4d751653844c74602c",
          "transactionIndex": "0x84",
          "logIndex": "0xb8",
          "removed": false
        },
        {
          "address": "0xdf07e15bbfd880539a732c0ec14cc6bd7620419d",
          "topics": [
            "0x8ebb2ec2465bdb2a06a66fc37a0963af8a2a6a1479d81d56fdb8cbb98096d546",
            "0x0000000000000000000000008f42bd64b98f35ec696b968e3ad073886464dec1"
          ],
          "data": "0x0000000000000000000000000000000000000000000000000000000000000000",
          "blockHash": "0xd186ac45529b7840d19c3ebada3da2b399295d19c3cb1527fb04743cea5a695c",
          "blockNumber": "0x7f8daa",
          "blockTimestamp": "0x682ae89c",
          "transactionHash": "0x6a4121ea2062f655ec5e60cb12ea9eefebaddd1e66956a4d751653844c74602c",
          "transactionIndex": "0x84",
          "logIndex": "0xb9",
          "removed": false
        }
      ],
      "logsBloom": "0x0400400004004000801000100400000000000000000000000000000000000000000002040000000040000000000400804000000000000000000010000400000000000000000000004000000a001000c02400000000000000000000000000000000000000020000200200001040000800000800000000004000000010000000000200000000000000000002000000000000000000000000000001000000400000000000000000000000008000000000000000000800000040000000000008000000000002000000000000000008020000000000000000000000040000000020000000000000000000000000402000000000000000080000800020000000000000",
      "type": "0x2",
      "transactionHash": "0x6a4121ea2062f655ec5e60cb12ea9eefebaddd1e66956a4d751653844c74602c",
      "transactionIndex": "0x84",
      "blockHash": "0xd186ac45529b7840d19c3ebada3da2b399295d19c3cb1527fb04743cea5a695c",
      "blockNumber": "0x7f8daa",
      "gasUsed": "0xd39d0",
      "effectiveGasPrice": "0x623c0d",
      "from": "0x00000050fdbabeb90fc6ed9891716300ff8f53cb",
      "to": "0x8f42bd64b98f35ec696b968e3ad073886464dec1",
      "contractAddress": null
    }
  ],
  "libraries": [],
  "pending": [],
  "returns": {},
  "timestamp": 1747642525,
  "chain": 11155111,
  "commit": "18dabfe"
}